{
  "_format": "hh-sol-artifact-1",
  "contractName": "JobBoard",
  "sourceName": "contracts/JobBoard.sol",
  "abi": [
    {
      "inputs": [
        {
          "internalType": "uint256",
          "name": "_initialFee",
          "type": "uint256"
        }
      ],
      "stateMutability": "nonpayable",
      "type": "constructor"
    },
    {
      "anonymous": false,
      "inputs": [
        {
          "indexed": true,
          "internalType": "uint256",
          "name": "jobId",
          "type": "uint256"
        },
        {
          "indexed": true,
          "internalType": "address",
          "name": "poster",
          "type": "address"
        },
        {
          "indexed": false,
          "internalType": "string",
          "name": "jobDataHash",
          "type": "string"
        }
      ],
      "name": "JobPosted",
      "type": "event"
    },
    {
      "inputs": [
        {
          "internalType": "uint256",
          "name": "",
          "type": "uint256"
        }
      ],
      "name": "jobs",
      "outputs": [
        {
          "internalType": "uint256",
          "name": "jobId",
          "type": "uint256"
        },
        {
          "internalType": "address",
          "name": "poster",
          "type": "address"
        },
        {
          "internalType": "string",
          "name": "jobDataHash",
          "type": "string"
        },
        {
          "internalType": "uint256",
          "name": "timestamp",
          "type": "uint256"
        }
      ],
      "stateMutability": "view",
      "type": "function"
    },
    {
      "inputs": [],
      "name": "owner",
      "outputs": [
        {
          "internalType": "address",
          "name": "",
          "type": "address"
        }
      ],
      "stateMutability": "view",
      "type": "function"
    },
    {
      "inputs": [],
      "name": "platformFee",
      "outputs": [
        {
          "internalType": "uint256",
          "name": "",
          "type": "uint256"
        }
      ],
      "stateMutability": "view",
      "type": "function"
    },
    {
      "inputs": [
        {
          "internalType": "string",
          "name": "_jobDataHash",
          "type": "string"
        }
      ],
      "name": "postJob",
      "outputs": [],
      "stateMutability": "payable",
      "type": "function"
    },
    {
      "inputs": [
        {
          "internalType": "uint256",
          "name": "_newFee",
          "type": "uint256"
        }
      ],
      "name": "setPlatformFee",
      "outputs": [],
      "stateMutability": "nonpayable",
      "type": "function"
    },
    {
      "inputs": [],
      "name": "withdrawFees",
      "outputs": [],
      "stateMutability": "nonpayable",
      "type": "function"
    }
  ],
  "bytecode": "0x6080604052348015600f57600080fd5b50604051610ed0380380610ed08339818101604052810190602f919060b1565b336000806101000a81548173ffffffffffffffffffffffffffffffffffffffff021916908373ffffffffffffffffffffffffffffffffffffffff160217905550806001819055505060d9565b600080fd5b6000819050919050565b6091816080565b8114609b57600080fd5b50565b60008151905060ab81608a565b92915050565b60006020828403121560c45760c3607b565b5b600060d084828501609e565b91505092915050565b610de8806100e86000396000f3fe6080604052600436106100555760003560e01c806312e8e2c31461005a578063180aedf31461008357806326232a2e146100c357806327a6d1d7146100ee578063476343ee1461010a5780638da5cb5b14610121575b600080fd5b34801561006657600080fd5b50610081600480360381019061007c91906105d7565b61014c565b005b34801561008f57600080fd5b506100aa60048036038101906100a591906105d7565b6101e4565b6040516100ba94939291906106e4565b60405180910390f35b3480156100cf57600080fd5b506100d86102bc565b6040516100e59190610730565b60405180910390f35b610108600480360381019061010391906107b0565b6102c2565b005b34801561011657600080fd5b5061011f61047c565b005b34801561012d57600080fd5b50610136610573565b60405161014391906107fd565b60405180910390f35b60008054906101000a900473ffffffffffffffffffffffffffffffffffffffff1673ffffffffffffffffffffffffffffffffffffffff163373ffffffffffffffffffffffffffffffffffffffff16146101da576040517f08c379a00000000000000000000000000000000000000000000000000000000081526004016101d19061088a565b60405180910390fd5b8060018190555050565b60036020528060005260406000206000915090508060000154908060010160009054906101000a900473ffffffffffffffffffffffffffffffffffffffff1690806002018054610233906108d9565b80601f016020809104026020016040519081016040528092919081815260200182805461025f906108d9565b80156102ac5780601f10610281576101008083540402835291602001916102ac565b820191906000526020600020905b81548152906001019060200180831161028f57829003601f168201915b5050505050908060030154905084565b60015481565b600154341015610307576040517f08c379a00000000000000000000000000000000000000000000000000000000081526004016102fe9061097c565b60405180910390fd5b604051806080016040528060025481526020013373ffffffffffffffffffffffffffffffffffffffff16815260200183838080601f016020809104026020016040519081016040528093929190818152602001838380828437600081840152601f19601f820116905080830192505050505050508152602001428152506003600060025481526020019081526020016000206000820151816000015560208201518160010160006101000a81548173ffffffffffffffffffffffffffffffffffffffff021916908373ffffffffffffffffffffffffffffffffffffffff16021790555060408201518160020190816103ff9190610b77565b50606082015181600301559050503373ffffffffffffffffffffffffffffffffffffffff166002547f874d4755e4be9f976c7833fc413deb77c1acbf096d6535b71953c36eb838cf408484604051610458929190610c85565b60405180910390a36002600081548092919061047390610cd8565b91905055505050565b60008054906101000a900473ffffffffffffffffffffffffffffffffffffffff1673ffffffffffffffffffffffffffffffffffffffff163373ffffffffffffffffffffffffffffffffffffffff161461050a576040517f08c379a000000000000000000000000000000000000000000000000000000000815260040161050190610d92565b60405180910390fd5b60008054906101000a900473ffffffffffffffffffffffffffffffffffffffff1673ffffffffffffffffffffffffffffffffffffffff166108fc479081150290604051600060405180830381858888f19350505050158015610570573d6000803e3d6000fd5b50565b60008054906101000a900473ffffffffffffffffffffffffffffffffffffffff1681565b600080fd5b600080fd5b6000819050919050565b6105b4816105a1565b81146105bf57600080fd5b50565b6000813590506105d1816105ab565b92915050565b6000602082840312156105ed576105ec610597565b5b60006105fb848285016105c2565b91505092915050565b61060d816105a1565b82525050565b600073ffffffffffffffffffffffffffffffffffffffff82169050919050565b600061063e82610613565b9050919050565b61064e81610633565b82525050565b600081519050919050565b600082825260208201905092915050565b60005b8381101561068e578082015181840152602081019050610673565b60008484015250505050565b6000601f19601f8301169050919050565b60006106b682610654565b6106c0818561065f565b93506106d0818560208601610670565b6106d98161069a565b840191505092915050565b60006080820190506106f96000830187610604565b6107066020830186610645565b818103604083015261071881856106ab565b90506107276060830184610604565b95945050505050565b60006020820190506107456000830184610604565b92915050565b600080fd5b600080fd5b600080fd5b60008083601f8401126107705761076f61074b565b5b8235905067ffffffffffffffff81111561078d5761078c610750565b5b6020830191508360018202830111156107a9576107a8610755565b5b9250929050565b600080602083850312156107c7576107c6610597565b5b600083013567ffffffffffffffff8111156107e5576107e461059c565b5b6107f18582860161075a565b92509250509250929050565b60006020820190506108126000830184610645565b92915050565b7f4a6f62426f6172643a204f6e6c7920746865206f776e65722063616e2073657460008201527f20746865206665652e0000000000000000000000000000000000000000000000602082015250565b600061087460298361065f565b915061087f82610818565b604082019050919050565b600060208201905081810360008301526108a381610867565b9050919050565b7f4e487b7100000000000000000000000000000000000000000000000000000000600052602260045260246000fd5b600060028204905060018216806108f157607f821691505b602082108103610904576109036108aa565b5b50919050565b7f4a6f62426f6172643a20496e73756666696369656e7420706c6174666f726d2060008201527f66656520706169642e0000000000000000000000000000000000000000000000602082015250565b600061096660298361065f565b91506109718261090a565b604082019050919050565b6000602082019050818103600083015261099581610959565b9050919050565b7f4e487b7100000000000000000000000000000000000000000000000000000000600052604160045260246000fd5b60008190508160005260206000209050919050565b60006020601f8301049050919050565b600082821b905092915050565b600060088302610a2d7fffffffffffffffffffffffffffffffffffffffffffffffffffffffffffffffff826109f0565b610a3786836109f0565b95508019841693508086168417925050509392505050565b6000819050919050565b6000610a74610a6f610a6a846105a1565b610a4f565b6105a1565b9050919050565b6000819050919050565b610a8e83610a59565b610aa2610a9a82610a7b565b8484546109fd565b825550505050565b600090565b610ab7610aaa565b610ac2818484610a85565b505050565b5b81811015610ae657610adb600082610aaf565b600181019050610ac8565b5050565b601f821115610b2b57610afc816109cb565b610b05846109e0565b81016020851015610b14578190505b610b28610b20856109e0565b830182610ac7565b50505b505050565b600082821c905092915050565b6000610b4e60001984600802610b30565b1980831691505092915050565b6000610b678383610b3d565b9150826002028217905092915050565b610b8082610654565b67ffffffffffffffff811115610b9957610b9861099c565b5b610ba382546108d9565b610bae828285610aea565b600060209050601f831160018114610be15760008415610bcf578287015190505b610bd98582610b5b565b865550610c41565b601f198416610bef866109cb565b60005b82811015610c1757848901518255600182019150602085019450602081019050610bf2565b86831015610c345784890151610c30601f891682610b3d565b8355505b6001600288020188555050505b505050505050565b82818337600083830152505050565b6000610c64838561065f565b9350610c71838584610c49565b610c7a8361069a565b840190509392505050565b60006020820190508181036000830152610ca0818486610c58565b90509392505050565b7f4e487b7100000000000000000000000000000000000000000000000000000000600052601160045260246000fd5b6000610ce3826105a1565b91507fffffffffffffffffffffffffffffffffffffffffffffffffffffffffffffffff8203610d1557610d14610ca9565b5b600182019050919050565b7f4a6f62426f6172643a204f6e6c7920746865206f776e65722063616e2077697460008201527f686472617720666565732e000000000000000000000000000000000000000000602082015250565b6000610d7c602b8361065f565b9150610d8782610d20565b604082019050919050565b60006020820190508181036000830152610dab81610d6f565b905091905056fea2646970667358221220055b72cc12d97b553055dc9c2d89a9f3ced3c534096e1f3ced17f5263c15be1d64736f6c634300081c0033",
  "linkReferences": {},
  "deployedLinkReferences": {}
}